{
  "_format": "hh-sol-artifact-1",
  "contractName": "OwnerOperator3",
  "sourceName": "contracts/OwnerOperator3.sol",
  "abi": [
    {
      "anonymous": false,
      "inputs": [
        {
          "indexed": false,
          "internalType": "uint8",
          "name": "version",
          "type": "uint8"
        }
      ],
      "name": "Initialized",
      "type": "event"
    },
    {
      "anonymous": false,
      "inputs": [
        {
          "indexed": true,
          "internalType": "address",
          "name": "previousOwner",
          "type": "address"
        },
        {
          "indexed": true,
          "internalType": "address",
          "name": "newOwner",
          "type": "address"
        }
      ],
      "name": "OwnershipTransferred",
      "type": "event"
    },
    {
      "inputs": [
        {
          "internalType": "address",
          "name": "operator",
          "type": "address"
        }
      ],
      "name": "addOperator",
      "outputs": [],
      "stateMutability": "nonpayable",
      "type": "function"
    },
    {
      "inputs": [],
      "name": "initialize",
      "outputs": [],
      "stateMutability": "nonpayable",
      "type": "function"
    },
    {
      "inputs": [],
      "name": "num",
      "outputs": [
        {
          "internalType": "uint256",
          "name": "",
          "type": "uint256"
        }
      ],
      "stateMutability": "view",
      "type": "function"
    },
    {
      "inputs": [],
      "name": "numadjust",
      "outputs": [
        {
          "internalType": "uint256",
          "name": "",
          "type": "uint256"
        }
      ],
      "stateMutability": "nonpayable",
      "type": "function"
    },
    {
      "inputs": [
        {
          "internalType": "address",
          "name": "",
          "type": "address"
        }
      ],
      "name": "operators",
      "outputs": [
        {
          "internalType": "bool",
          "name": "",
          "type": "bool"
        }
      ],
      "stateMutability": "view",
      "type": "function"
    },
    {
      "inputs": [],
      "name": "owner",
      "outputs": [
        {
          "internalType": "address",
          "name": "",
          "type": "address"
        }
      ],
      "stateMutability": "view",
      "type": "function"
    },
    {
      "inputs": [
        {
          "internalType": "address",
          "name": "operator",
          "type": "address"
        }
      ],
      "name": "removeOperator",
      "outputs": [],
      "stateMutability": "nonpayable",
      "type": "function"
    },
    {
      "inputs": [],
      "name": "renounceOwnership",
      "outputs": [],
      "stateMutability": "nonpayable",
      "type": "function"
    },
    {
      "inputs": [],
      "name": "testcase1",
      "outputs": [
        {
          "internalType": "uint256",
          "name": "",
          "type": "uint256"
        }
      ],
      "stateMutability": "view",
      "type": "function"
    },
    {
      "inputs": [],
      "name": "testcase2",
      "outputs": [
        {
          "internalType": "uint256",
          "name": "",
          "type": "uint256"
        }
      ],
      "stateMutability": "view",
      "type": "function"
    },
    {
      "inputs": [
        {
          "internalType": "address",
          "name": "newOwner",
          "type": "address"
        }
      ],
      "name": "transferOwnership",
      "outputs": [],
      "stateMutability": "nonpayable",
      "type": "function"
    }
  ],
  "bytecode": "0x608060405234801561001057600080fd5b5061068d806100206000396000f3fe608060405234801561001057600080fd5b50600436106100a95760003560e01c80639136e98f116100715780639136e98f1461012a5780639870d7fe14610131578063ac8a584a14610144578063b272e51214610157578063f2fde38b1461015f578063fecd68cf14610172576100a9565b806313e7c9d8146100ae5780634e70b1dc146100e6578063715018a6146100fd5780638129fc1c146101075780638da5cb5b1461010f575b600080fd5b6100d16100bc36600461056f565b60656020526000908152604090205460ff1681565b60405190151581526020015b60405180910390f35b6100ef60665481565b6040519081526020016100dd565b61010561017a565b005b61010561018e565b6033546040516001600160a01b0390911681526020016100dd565b60046100ef565b61010561013f36600461056f565b6102b1565b61010561015236600461056f565b610303565b6100ef610352565b61010561016d36600461056f565b6103db565b6100ef610451565b61018261046c565b61018c60006104c6565b565b600054610100900460ff16158080156101ae5750600054600160ff909116105b806101c85750303b1580156101c8575060005460ff166001145b6102305760405162461bcd60e51b815260206004820152602e60248201527f496e697469616c697a61626c653a20636f6e747261637420697320616c72656160448201526d191e481a5b9a5d1a585b1a5e995960921b60648201526084015b60405180910390fd5b6000805460ff191660011790558015610253576000805461ff0019166101001790555b61025b610518565b61026361053f565b600060665580156102ae576000805461ff0019169055604051600181527f7f26b83ff96e1f2b6a682f133852f6798a09c465da95921460cefb38474024989060200160405180910390a15b50565b6102b961046c565b6001600160a01b0381166102df5760405162461bcd60e51b81526004016102279061059d565b6001600160a01b03166000908152606560205260409020805460ff19166001179055565b61030b61046c565b6001600160a01b0381166103315760405162461bcd60e51b81526004016102279061059d565b6001600160a01b03166000908152606560205260409020805460ff19169055565b3360009081526065602052604081205460ff168061038957503361037e6033546001600160a01b031690565b6001600160a01b0316145b6103d55760405162461bcd60e51b815260206004820181905260248201527f4f776e65724f70657261746f723a20216f70657261746f722c20216f776e65726044820152606401610227565b50600390565b6103e361046c565b6001600160a01b0381166104485760405162461bcd60e51b815260206004820152602660248201527f4f776e61626c653a206e6577206f776e657220697320746865207a65726f206160448201526564647265737360d01b6064820152608401610227565b6102ae816104c6565b600060665460016104629190610633565b6066819055905090565b6033546001600160a01b0316331461018c5760405162461bcd60e51b815260206004820181905260248201527f4f776e61626c653a2063616c6c6572206973206e6f7420746865206f776e65726044820152606401610227565b603380546001600160a01b038381166001600160a01b0319831681179093556040519116919082907f8be0079c531659141344cd1fd0a4f28419497f9722a3daafe3b4186f6b6457e090600090a35050565b600054610100900460ff1661018c5760405162461bcd60e51b8152600401610227906105e8565b600054610100900460ff166105665760405162461bcd60e51b8152600401610227906105e8565b61018c336104c6565b600060208284031215610580578081fd5b81356001600160a01b0381168114610596578182fd5b9392505050565b6020808252602b908201527f4f776e65724f70657261746f723a206f70657261746f7220697320746865207a60408201526a65726f206164647265737360a81b606082015260800190565b6020808252602b908201527f496e697469616c697a61626c653a20636f6e7472616374206973206e6f74206960408201526a6e697469616c697a696e6760a81b606082015260800190565b6000821982111561065257634e487b7160e01b81526011600452602481fd5b50019056fea26469706673582212202693e2bbaeff23142c2ea2ffa0f16fc8e5c3480eace7e540a86b22789c202cfc64736f6c63430008020033",
  "linkReferences": {},
  "deployedLinkReferences": {}
}