{
  "_format": "hh-sol-artifact-1",
  "contractName": "OwnerOperator2",
  "sourceName": "contracts/OwnerOperator2.sol",
  "abi": [
    {
      "anonymous": false,
      "inputs": [
        {
          "indexed": false,
          "internalType": "uint8",
          "name": "version",
          "type": "uint8"
        }
      ],
      "name": "Initialized",
      "type": "event"
    },
    {
      "anonymous": false,
      "inputs": [
        {
          "indexed": true,
          "internalType": "address",
          "name": "previousOwner",
          "type": "address"
        },
        {
          "indexed": true,
          "internalType": "address",
          "name": "newOwner",
          "type": "address"
        }
      ],
      "name": "OwnershipTransferred",
      "type": "event"
    },
    {
      "inputs": [
        {
          "internalType": "address",
          "name": "operator",
          "type": "address"
        }
      ],
      "name": "addOperator",
      "outputs": [],
      "stateMutability": "nonpayable",
      "type": "function"
    },
    {
      "inputs": [],
      "name": "initialize",
      "outputs": [],
      "stateMutability": "nonpayable",
      "type": "function"
    },
    {
      "inputs": [],
      "name": "num",
      "outputs": [
        {
          "internalType": "uint256",
          "name": "",
          "type": "uint256"
        }
      ],
      "stateMutability": "view",
      "type": "function"
    },
    {
      "inputs": [],
      "name": "numadjust",
      "outputs": [
        {
          "internalType": "uint256",
          "name": "",
          "type": "uint256"
        }
      ],
      "stateMutability": "nonpayable",
      "type": "function"
    },
    {
      "inputs": [
        {
          "internalType": "address",
          "name": "",
          "type": "address"
        }
      ],
      "name": "operators",
      "outputs": [
        {
          "internalType": "bool",
          "name": "",
          "type": "bool"
        }
      ],
      "stateMutability": "view",
      "type": "function"
    },
    {
      "inputs": [],
      "name": "owner",
      "outputs": [
        {
          "internalType": "address",
          "name": "",
          "type": "address"
        }
      ],
      "stateMutability": "view",
      "type": "function"
    },
    {
      "inputs": [
        {
          "internalType": "address",
          "name": "operator",
          "type": "address"
        }
      ],
      "name": "removeOperator",
      "outputs": [],
      "stateMutability": "nonpayable",
      "type": "function"
    },
    {
      "inputs": [],
      "name": "renounceOwnership",
      "outputs": [],
      "stateMutability": "nonpayable",
      "type": "function"
    },
    {
      "inputs": [],
      "name": "testcase1",
      "outputs": [
        {
          "internalType": "uint256",
          "name": "",
          "type": "uint256"
        }
      ],
      "stateMutability": "view",
      "type": "function"
    },
    {
      "inputs": [],
      "name": "testcase2",
      "outputs": [
        {
          "internalType": "uint256",
          "name": "",
          "type": "uint256"
        }
      ],
      "stateMutability": "view",
      "type": "function"
    },
    {
      "inputs": [
        {
          "internalType": "address",
          "name": "newOwner",
          "type": "address"
        }
      ],
      "name": "transferOwnership",
      "outputs": [],
      "stateMutability": "nonpayable",
      "type": "function"
    }
  ],
  "bytecode": "0x608060405234801561001057600080fd5b506106f2806100206000396000f3fe608060405234801561001057600080fd5b50600436106100a95760003560e01c80639136e98f116100715780639136e98f1461012a5780639870d7fe14610132578063ac8a584a14610145578063b272e51214610158578063f2fde38b14610160578063fecd68cf14610173576100a9565b806313e7c9d8146100ae5780634e70b1dc146100e6578063715018a6146100fd5780638129fc1c146101075780638da5cb5b1461010f575b600080fd5b6100d16100bc3660046105d5565b60656020526000908152604090205460ff1681565b60405190151581526020015b60405180910390f35b6100ef60665481565b6040519081526020016100dd565b61010561017b565b005b61010561018f565b6033546040516001600160a01b0390911681526020016100dd565b6100ef6102b2565b6101056101403660046105d5565b610317565b6101056101533660046105d5565b610369565b6100ef6103b8565b61010561016e3660046105d5565b610441565b6100ef6104b7565b6101836104d2565b61018d600061052c565b565b600054610100900460ff16158080156101af5750600054600160ff909116105b806101c95750303b1580156101c9575060005460ff166001145b6102315760405162461bcd60e51b815260206004820152602e60248201527f496e697469616c697a61626c653a20636f6e747261637420697320616c72656160448201526d191e481a5b9a5d1a585b1a5e995960921b60648201526084015b60405180910390fd5b6000805460ff191660011790558015610254576000805461ff0019166101001790555b61025c61057e565b6102646105a5565b600060665580156102af576000805461ff0019169055604051600181527f7f26b83ff96e1f2b6a682f133852f6798a09c465da95921460cefb38474024989060200160405180910390a15b50565b3360009081526065602052604081205460ff166103115760405162461bcd60e51b815260206004820152601860248201527f4f776e65724f70657261746f723a20216f70657261746f7200000000000000006044820152606401610228565b50600490565b61031f6104d2565b6001600160a01b0381166103455760405162461bcd60e51b815260040161022890610603565b6001600160a01b03166000908152606560205260409020805460ff19166001179055565b6103716104d2565b6001600160a01b0381166103975760405162461bcd60e51b815260040161022890610603565b6001600160a01b03166000908152606560205260409020805460ff19169055565b3360009081526065602052604081205460ff16806103ef5750336103e46033546001600160a01b031690565b6001600160a01b0316145b61043b5760405162461bcd60e51b815260206004820181905260248201527f4f776e65724f70657261746f723a20216f70657261746f722c20216f776e65726044820152606401610228565b50600390565b6104496104d2565b6001600160a01b0381166104ae5760405162461bcd60e51b815260206004820152602660248201527f4f776e61626c653a206e6577206f776e657220697320746865207a65726f206160448201526564647265737360d01b6064820152608401610228565b6102af8161052c565b600060016066546104c89190610699565b6066819055905090565b6033546001600160a01b0316331461018d5760405162461bcd60e51b815260206004820181905260248201527f4f776e61626c653a2063616c6c6572206973206e6f7420746865206f776e65726044820152606401610228565b603380546001600160a01b038381166001600160a01b0319831681179093556040519116919082907f8be0079c531659141344cd1fd0a4f28419497f9722a3daafe3b4186f6b6457e090600090a35050565b600054610100900460ff1661018d5760405162461bcd60e51b81526004016102289061064e565b600054610100900460ff166105cc5760405162461bcd60e51b81526004016102289061064e565b61018d3361052c565b6000602082840312156105e6578081fd5b81356001600160a01b03811681146105fc578182fd5b9392505050565b6020808252602b908201527f4f776e65724f70657261746f723a206f70657261746f7220697320746865207a60408201526a65726f206164647265737360a81b606082015260800190565b6020808252602b908201527f496e697469616c697a61626c653a20636f6e7472616374206973206e6f74206960408201526a6e697469616c697a696e6760a81b606082015260800190565b6000828210156106b757634e487b7160e01b81526011600452602481fd5b50039056fea2646970667358221220dab3a1fea799f773adcc26d8c4af9d7c9f6e9e792988ff08ff1b90c657d186f964736f6c63430008020033",
  "linkReferences": {},
  "deployedLinkReferences": {}
}