{
  "_format": "hh-sol-artifact-1",
  "contractName": "Numeric_uups",
  "sourceName": "contracts/numeric_uups.sol",
  "abi": [
    {
      "inputs": [],
      "stateMutability": "nonpayable",
      "type": "constructor"
    },
    {
      "anonymous": false,
      "inputs": [
        {
          "indexed": false,
          "internalType": "address",
          "name": "previousAdmin",
          "type": "address"
        },
        {
          "indexed": false,
          "internalType": "address",
          "name": "newAdmin",
          "type": "address"
        }
      ],
      "name": "AdminChanged",
      "type": "event"
    },
    {
      "anonymous": false,
      "inputs": [
        {
          "indexed": true,
          "internalType": "address",
          "name": "beacon",
          "type": "address"
        }
      ],
      "name": "BeaconUpgraded",
      "type": "event"
    },
    {
      "anonymous": false,
      "inputs": [
        {
          "indexed": false,
          "internalType": "uint8",
          "name": "version",
          "type": "uint8"
        }
      ],
      "name": "Initialized",
      "type": "event"
    },
    {
      "anonymous": false,
      "inputs": [
        {
          "indexed": true,
          "internalType": "address",
          "name": "previousOwner",
          "type": "address"
        },
        {
          "indexed": true,
          "internalType": "address",
          "name": "newOwner",
          "type": "address"
        }
      ],
      "name": "OwnershipTransferred",
      "type": "event"
    },
    {
      "anonymous": false,
      "inputs": [
        {
          "indexed": true,
          "internalType": "address",
          "name": "implementation",
          "type": "address"
        }
      ],
      "name": "Upgraded",
      "type": "event"
    },
    {
      "inputs": [],
      "name": "initialize",
      "outputs": [],
      "stateMutability": "nonpayable",
      "type": "function"
    },
    {
      "inputs": [],
      "name": "num",
      "outputs": [
        {
          "internalType": "uint256",
          "name": "",
          "type": "uint256"
        }
      ],
      "stateMutability": "view",
      "type": "function"
    },
    {
      "inputs": [],
      "name": "numadjust",
      "outputs": [
        {
          "internalType": "uint256",
          "name": "",
          "type": "uint256"
        }
      ],
      "stateMutability": "nonpayable",
      "type": "function"
    },
    {
      "inputs": [],
      "name": "owner",
      "outputs": [
        {
          "internalType": "address",
          "name": "",
          "type": "address"
        }
      ],
      "stateMutability": "view",
      "type": "function"
    },
    {
      "inputs": [],
      "name": "proxiableUUID",
      "outputs": [
        {
          "internalType": "bytes32",
          "name": "",
          "type": "bytes32"
        }
      ],
      "stateMutability": "view",
      "type": "function"
    },
    {
      "inputs": [],
      "name": "renounceOwnership",
      "outputs": [],
      "stateMutability": "nonpayable",
      "type": "function"
    },
    {
      "inputs": [
        {
          "internalType": "address",
          "name": "newOwner",
          "type": "address"
        }
      ],
      "name": "transferOwnership",
      "outputs": [],
      "stateMutability": "nonpayable",
      "type": "function"
    },
    {
      "inputs": [
        {
          "internalType": "address",
          "name": "newImplementation",
          "type": "address"
        }
      ],
      "name": "upgradeTo",
      "outputs": [],
      "stateMutability": "nonpayable",
      "type": "function"
    },
    {
      "inputs": [
        {
          "internalType": "address",
          "name": "newImplementation",
          "type": "address"
        },
        {
          "internalType": "bytes",
          "name": "data",
          "type": "bytes"
        }
      ],
      "name": "upgradeToAndCall",
      "outputs": [],
      "stateMutability": "payable",
      "type": "function"
    }
  ],
  "bytecode": "0x60a06040523060601b60805234801561001757600080fd5b50610020610025565b6100e5565b600054610100900460ff16156100915760405162461bcd60e51b815260206004820152602760248201527f496e697469616c697a61626c653a20636f6e747261637420697320696e697469604482015266616c697a696e6760c81b606482015260840160405180910390fd5b60005460ff90811610156100e3576000805460ff191660ff9081179091556040519081527f7f26b83ff96e1f2b6a682f133852f6798a09c465da95921460cefb38474024989060200160405180910390a15b565b60805160601c610de861011f60003960008181610190015281816101d901528181610279015281816102b9015261034c0152610de86000f3fe6080604052600436106100865760003560e01c8063715018a611610059578063715018a6146100fe5780638129fc1c146101135780638da5cb5b14610128578063f2fde38b14610150578063fecd68cf1461017057610086565b80633659cfe61461008b5780634e70b1dc146100ad5780634f1ef286146100d657806352d1902d146100e9575b600080fd5b34801561009757600080fd5b506100ab6100a6366004610ae4565b610185565b005b3480156100b957600080fd5b506100c360c95481565b6040519081526020015b60405180910390f35b6100ab6100e4366004610afe565b61026e565b3480156100f557600080fd5b506100c361033f565b34801561010a57600080fd5b506100ab6103f2565b34801561011f57600080fd5b506100ab610406565b34801561013457600080fd5b506033546040516001600160a01b0390911681526020016100cd565b34801561015c57600080fd5b506100ab61016b366004610ae4565b61052a565b34801561017c57600080fd5b506100c36105a0565b306001600160a01b037f00000000000000000000000000000000000000000000000000000000000000001614156101d75760405162461bcd60e51b81526004016101ce90610c22565b60405180910390fd5b7f00000000000000000000000000000000000000000000000000000000000000006001600160a01b0316610220600080516020610d6c833981519152546001600160a01b031690565b6001600160a01b0316146102465760405162461bcd60e51b81526004016101ce90610c6e565b61024f816105bb565b6040805160008082526020820190925261026b918391906105c3565b50565b306001600160a01b037f00000000000000000000000000000000000000000000000000000000000000001614156102b75760405162461bcd60e51b81526004016101ce90610c22565b7f00000000000000000000000000000000000000000000000000000000000000006001600160a01b0316610300600080516020610d6c833981519152546001600160a01b031690565b6001600160a01b0316146103265760405162461bcd60e51b81526004016101ce90610c6e565b61032f826105bb565b61033b828260016105c3565b5050565b6000306001600160a01b037f000000000000000000000000000000000000000000000000000000000000000016146103df5760405162461bcd60e51b815260206004820152603860248201527f555550535570677261646561626c653a206d757374206e6f742062652063616c60448201527f6c6564207468726f7567682064656c656761746563616c6c000000000000000060648201526084016101ce565b50600080516020610d6c83398151915290565b6103fa610747565b61040460006107a1565b565b600054610100900460ff16158080156104265750600054600160ff909116105b806104475750610435306107f3565b158015610447575060005460ff166001145b6104aa5760405162461bcd60e51b815260206004820152602e60248201527f496e697469616c697a61626c653a20636f6e747261637420697320616c72656160448201526d191e481a5b9a5d1a585b1a5e995960921b60648201526084016101ce565b6000805460ff1916600117905580156104cd576000805461ff0019166101001790555b6104d5610806565b6104dd610835565b600060c955801561026b576000805461ff0019169055604051600181527f7f26b83ff96e1f2b6a682f133852f6798a09c465da95921460cefb38474024989060200160405180910390a150565b610532610747565b6001600160a01b0381166105975760405162461bcd60e51b815260206004820152602660248201527f4f776e61626c653a206e6577206f776e657220697320746865207a65726f206160448201526564647265737360d01b60648201526084016101ce565b61026b816107a1565b600060c95460016105b19190610d05565b60c9819055905090565b61026b610747565b7f4910fdfa16fed3260ed0e7147f7cc6da11a60208b5b9406d12a635614ffd91435460ff16156105fb576105f68361085c565b610742565b826001600160a01b03166352d1902d6040518163ffffffff1660e01b815260040160206040518083038186803b15801561063457600080fd5b505afa925050508015610664575060408051601f3d908101601f1916820190925261066191810190610bbb565b60015b6106c75760405162461bcd60e51b815260206004820152602e60248201527f45524331393637557067726164653a206e657720696d706c656d656e7461746960448201526d6f6e206973206e6f74205555505360901b60648201526084016101ce565b600080516020610d6c83398151915281146107365760405162461bcd60e51b815260206004820152602960248201527f45524331393637557067726164653a20756e737570706f727465642070726f786044820152681a58589b195555525160ba1b60648201526084016101ce565b506107428383836108f6565b505050565b6033546001600160a01b031633146104045760405162461bcd60e51b815260206004820181905260248201527f4f776e61626c653a2063616c6c6572206973206e6f7420746865206f776e657260448201526064016101ce565b603380546001600160a01b038381166001600160a01b0319831681179093556040519116919082907f8be0079c531659141344cd1fd0a4f28419497f9722a3daafe3b4186f6b6457e090600090a35050565b6001600160a01b0381163b15155b919050565b600054610100900460ff1661082d5760405162461bcd60e51b81526004016101ce90610cba565b610404610921565b600054610100900460ff166104045760405162461bcd60e51b81526004016101ce90610cba565b610865816107f3565b6108c75760405162461bcd60e51b815260206004820152602d60248201527f455243313936373a206e657720696d706c656d656e746174696f6e206973206e60448201526c1bdd08184818dbdb9d1c9858dd609a1b60648201526084016101ce565b600080516020610d6c83398151915280546001600160a01b0319166001600160a01b0392909216919091179055565b6108ff83610951565b60008251118061090c5750805b156107425761091b8383610991565b50505050565b600054610100900460ff166109485760405162461bcd60e51b81526004016101ce90610cba565b610404336107a1565b61095a8161085c565b6040516001600160a01b038216907fbc7cd75a20ee27fd9adebab32041f755214dbc6bffa90cc0225b39da2e5c2d3b90600090a250565b606061099c836107f3565b6109f75760405162461bcd60e51b815260206004820152602660248201527f416464726573733a2064656c65676174652063616c6c20746f206e6f6e2d636f6044820152651b9d1c9858dd60d21b60648201526084016101ce565b600080846001600160a01b031684604051610a129190610bd3565b600060405180830381855af49150503d8060008114610a4d576040519150601f19603f3d011682016040523d82523d6000602084013e610a52565b606091505b5091509150610a7a8282604051806060016040528060278152602001610d8c60279139610a83565b95945050505050565b60608315610a92575081610a9c565b610a9c8383610aa3565b9392505050565b815115610ab35781518083602001fd5b8060405162461bcd60e51b81526004016101ce9190610bef565b80356001600160a01b038116811461080157600080fd5b600060208284031215610af5578081fd5b610a9c82610acd565b60008060408385031215610b10578081fd5b610b1983610acd565b9150602083013567ffffffffffffffff80821115610b35578283fd5b818501915085601f830112610b48578283fd5b813581811115610b5a57610b5a610d55565b604051601f8201601f19908116603f01168101908382118183101715610b8257610b82610d55565b81604052828152886020848701011115610b9a578586fd5b82602086016020830137856020848301015280955050505050509250929050565b600060208284031215610bcc578081fd5b5051919050565b60008251610be5818460208701610d29565b9190910192915050565b6000602082528251806020840152610c0e816040850160208701610d29565b601f01601f19169190910160400192915050565b6020808252602c908201527f46756e6374696f6e206d7573742062652063616c6c6564207468726f7567682060408201526b19195b1959d85d1958d85b1b60a21b606082015260800190565b6020808252602c908201527f46756e6374696f6e206d7573742062652063616c6c6564207468726f7567682060408201526b6163746976652070726f787960a01b606082015260800190565b6020808252602b908201527f496e697469616c697a61626c653a20636f6e7472616374206973206e6f74206960408201526a6e697469616c697a696e6760a81b606082015260800190565b60008219821115610d2457634e487b7160e01b81526011600452602481fd5b500190565b60005b83811015610d44578181015183820152602001610d2c565b8381111561091b5750506000910152565b634e487b7160e01b600052604160045260246000fdfe360894a13ba1a3210667c828492db98dca3e2076cc3735a920a3ca505d382bbc416464726573733a206c6f772d6c6576656c2064656c65676174652063616c6c206661696c6564a26469706673582212204904293772e0b8adfe30d1a2ac6427a3cdff55f7d951b13a2177c92263fbcfa364736f6c63430008020033",
  "linkReferences": {},
  "deployedLinkReferences": {}
}