{
  "_format": "hh-sol-artifact-1",
  "contractName": "numeric",
  "sourceName": "contracts/numeric.sol",
  "abi": [
    {
      "anonymous": false,
      "inputs": [
        {
          "indexed": false,
          "internalType": "uint8",
          "name": "version",
          "type": "uint8"
        }
      ],
      "name": "Initialized",
      "type": "event"
    },
    {
      "inputs": [],
      "name": "initialize",
      "outputs": [],
      "stateMutability": "nonpayable",
      "type": "function"
    },
    {
      "inputs": [],
      "name": "num",
      "outputs": [
        {
          "internalType": "uint256",
          "name": "",
          "type": "uint256"
        }
      ],
      "stateMutability": "view",
      "type": "function"
    },
    {
      "inputs": [],
      "name": "numadjust",
      "outputs": [
        {
          "internalType": "uint256",
          "name": "",
          "type": "uint256"
        }
      ],
      "stateMutability": "nonpayable",
      "type": "function"
    },
    {
      "inputs": [
        {
          "internalType": "address",
          "name": "",
          "type": "address"
        }
      ],
      "name": "operators",
      "outputs": [
        {
          "internalType": "bool",
          "name": "",
          "type": "bool"
        }
      ],
      "stateMutability": "view",
      "type": "function"
    }
  ],
  "bytecode": "0x608060405234801561001057600080fd5b50610267806100206000396000f3fe608060405234801561001057600080fd5b506004361061004c5760003560e01c806313e7c9d8146100515780634e70b1dc146100895780638129fc1c146100a0578063fecd68cf146100aa575b600080fd5b61007461005f3660046101df565b60016020526000908152604090205460ff1681565b60405190151581526020015b60405180910390f35b61009260025481565b604051908152602001610080565b6100a86100b2565b005b6100926101c4565b600054610100900460ff16158080156100d25750600054600160ff909116105b806100ec5750303b1580156100ec575060005460ff166001145b6101535760405162461bcd60e51b815260206004820152602e60248201527f496e697469616c697a61626c653a20636f6e747261637420697320616c72656160448201526d191e481a5b9a5d1a585b1a5e995960921b606482015260840160405180910390fd5b6000805460ff191660011790558015610176576000805461ff0019166101001790555b600060025580156101c1576000805461ff0019169055604051600181527f7f26b83ff96e1f2b6a682f133852f6798a09c465da95921460cefb38474024989060200160405180910390a15b50565b600060025460016101d5919061020d565b6002819055905090565b6000602082840312156101f0578081fd5b81356001600160a01b0381168114610206578182fd5b9392505050565b6000821982111561022c57634e487b7160e01b81526011600452602481fd5b50019056fea264697066735822122017c27f33164e7d1c7110ddbe342d9c042c2315f9dcd30659d2f414f5c1a4b1e964736f6c63430008020033",
  "linkReferences": {},
  "deployedLinkReferences": {}
}